{
  "_format": "hh-sol-artifact-1",
  "contractName": "ForestFeed",
  "sourceName": "contracts/forestFeed/ForestFeed.sol",
  "abi": [
    {
      "inputs": [],
      "stateMutability": "nonpayable",
      "type": "constructor"
    },
    {
      "anonymous": false,
      "inputs": [
        {
          "indexed": false,
          "internalType": "address",
          "name": "previousAdmin",
          "type": "address"
        },
        {
          "indexed": false,
          "internalType": "address",
          "name": "newAdmin",
          "type": "address"
        }
      ],
      "name": "AdminChanged",
      "type": "event"
    },
    {
      "anonymous": false,
      "inputs": [
        {
          "indexed": true,
          "internalType": "address",
          "name": "beacon",
          "type": "address"
        }
      ],
      "name": "BeaconUpgraded",
      "type": "event"
    },
    {
      "anonymous": false,
      "inputs": [
        {
          "indexed": false,
          "internalType": "address",
          "name": "creator",
          "type": "address"
        },
        {
          "indexed": false,
          "internalType": "uint256",
          "name": "amount",
          "type": "uint256"
        }
      ],
      "name": "Deposited",
      "type": "event"
    },
    {
      "anonymous": false,
      "inputs": [
        {
          "indexed": false,
          "internalType": "uint8",
          "name": "version",
          "type": "uint8"
        }
      ],
      "name": "Initialized",
      "type": "event"
    },
    {
      "anonymous": false,
      "inputs": [
        {
          "indexed": false,
          "internalType": "uint256",
          "name": "pubId",
          "type": "uint256"
        },
        {
          "indexed": false,
          "internalType": "uint256",
          "name": "profileId",
          "type": "uint256"
        },
        {
          "indexed": false,
          "internalType": "uint256",
          "name": "pubIdPointed",
          "type": "uint256"
        },
        {
          "indexed": false,
          "internalType": "uint256",
          "name": "profileIdPointed",
          "type": "uint256"
        }
      ],
      "name": "MirrorCreated",
      "type": "event"
    },
    {
      "anonymous": false,
      "inputs": [
        {
          "indexed": false,
          "internalType": "address",
          "name": "creator",
          "type": "address"
        },
        {
          "indexed": false,
          "internalType": "address",
          "name": "to",
          "type": "address"
        },
        {
          "indexed": false,
          "internalType": "uint256",
          "name": "count",
          "type": "uint256"
        }
      ],
      "name": "Rewarded",
      "type": "event"
    },
    {
      "anonymous": false,
      "inputs": [
        {
          "indexed": true,
          "internalType": "address",
          "name": "implementation",
          "type": "address"
        }
      ],
      "name": "Upgraded",
      "type": "event"
    },
    {
      "anonymous": false,
      "inputs": [
        {
          "indexed": false,
          "internalType": "address",
          "name": "creator",
          "type": "address"
        }
      ],
      "name": "Withdrawn",
      "type": "event"
    },
    {
      "inputs": [],
      "name": "accessRestriction",
      "outputs": [
        {
          "internalType": "contract IAccessRestriction",
          "name": "",
          "type": "address"
        }
      ],
      "stateMutability": "view",
      "type": "function"
    },
    {
      "inputs": [],
      "name": "daiToken",
      "outputs": [
        {
          "internalType": "contract IERC20Upgradeable",
          "name": "",
          "type": "address"
        }
      ],
      "stateMutability": "view",
      "type": "function"
    },
    {
      "inputs": [
        {
          "internalType": "uint256",
          "name": "_amount",
          "type": "uint256"
        }
      ],
      "name": "deposit",
      "outputs": [],
      "stateMutability": "nonpayable",
      "type": "function"
    },
    {
      "inputs": [
        {
          "internalType": "address",
          "name": "_accessRestrictionAddress",
          "type": "address"
        },
        {
          "internalType": "address",
          "name": "_daiToken",
          "type": "address"
        },
        {
          "internalType": "address",
          "name": "_regularSale",
          "type": "address"
        }
      ],
      "name": "initialize",
      "outputs": [],
      "stateMutability": "nonpayable",
      "type": "function"
    },
    {
      "inputs": [],
      "name": "proxiableUUID",
      "outputs": [
        {
          "internalType": "bytes32",
          "name": "",
          "type": "bytes32"
        }
      ],
      "stateMutability": "view",
      "type": "function"
    },
    {
      "inputs": [
        {
          "internalType": "address",
          "name": "_creator",
          "type": "address"
        },
        {
          "internalType": "address",
          "name": "_to",
          "type": "address"
        },
        {
          "internalType": "uint256",
          "name": "_count",
          "type": "uint256"
        }
      ],
      "name": "reward",
      "outputs": [],
      "stateMutability": "nonpayable",
      "type": "function"
    },
    {
      "inputs": [],
      "name": "test",
      "outputs": [],
      "stateMutability": "nonpayable",
      "type": "function"
    },
    {
      "inputs": [
        {
          "internalType": "address",
          "name": "",
          "type": "address"
        }
      ],
      "name": "totalBalance",
      "outputs": [
        {
          "internalType": "uint256",
          "name": "",
          "type": "uint256"
        }
      ],
      "stateMutability": "view",
      "type": "function"
    },
    {
      "inputs": [],
      "name": "treejerRegularSale",
      "outputs": [
        {
          "internalType": "contract IRegularSale",
          "name": "",
          "type": "address"
        }
      ],
      "stateMutability": "view",
      "type": "function"
    },
    {
      "inputs": [
        {
          "internalType": "address",
          "name": "newImplementation",
          "type": "address"
        }
      ],
      "name": "upgradeTo",
      "outputs": [],
      "stateMutability": "nonpayable",
      "type": "function"
    },
    {
      "inputs": [
        {
          "internalType": "address",
          "name": "newImplementation",
          "type": "address"
        },
        {
          "internalType": "bytes",
          "name": "data",
          "type": "bytes"
        }
      ],
      "name": "upgradeToAndCall",
      "outputs": [],
      "stateMutability": "payable",
      "type": "function"
    },
    {
      "inputs": [
        {
          "internalType": "address",
          "name": "_creator",
          "type": "address"
        },
        {
          "internalType": "uint256",
          "name": "_amount",
          "type": "uint256"
        }
      ],
      "name": "withdraw",
      "outputs": [],
      "stateMutability": "nonpayable",
      "type": "function"
    }
  ],
  "bytecode": "0x60a06040523060805234801561001457600080fd5b5061001d610022565b6100e2565b600054610100900460ff161561008e5760405162461bcd60e51b815260206004820152602760248201527f496e697469616c697a61626c653a20636f6e747261637420697320696e697469604482015266616c697a696e6760c81b606482015260840160405180910390fd5b60005460ff90811610156100e0576000805460ff191660ff9081179091556040519081527f7f26b83ff96e1f2b6a682f133852f6798a09c465da95921460cefb38474024989060200160405180910390a15b565b60805161164c6101196000396000818161051301528181610553015281816105f30152818161063301526106c6015261164c6000f3fe6080604052600436106100a75760003560e01c8063b6b55f2511610064578063b6b55f251461018e578063be22f546146101ae578063c0c53b8b146101ce578063d6762c4a146101ee578063f3fef3a31461020e578063f8a8fd6d1461022e57600080fd5b8063135488d6146100ac5780633659cfe6146100ce5780634f1ef286146100ee57806352d1902d146101015780636eacd39814610129578063b154927914610156575b600080fd5b3480156100b857600080fd5b506100cc6100c736600461123a565b610243565b005b3480156100da57600080fd5b506100cc6100e9366004611276565b610508565b6100cc6100fc3660046112a7565b6105e8565b34801561010d57600080fd5b506101166106b9565b6040519081526020015b60405180910390f35b34801561013557600080fd5b50610116610144366004611276565b60656020526000908152604090205481565b34801561016257600080fd5b50606854610176906001600160a01b031681565b6040516001600160a01b039091168152602001610120565b34801561019a57600080fd5b506100cc6101a9366004611369565b61076c565b3480156101ba57600080fd5b50606654610176906001600160a01b031681565b3480156101da57600080fd5b506100cc6101e9366004611382565b6109a1565b3480156101fa57600080fd5b50606754610176906001600160a01b031681565b34801561021a57600080fd5b506100cc6102293660046113c5565b610b6d565b34801561023a57600080fd5b506100cc610d53565b6067546040516335126dab60e21b81523360048201526001600160a01b039091169063d449b6ac9060240160006040518083038186803b15801561028657600080fd5b505afa15801561029a573d6000803e3d6000fd5b50505050606760009054906101000a90046001600160a01b03166001600160a01b0316634d868f986040518163ffffffff1660e01b815260040160006040518083038186803b1580156102ec57600080fd5b505afa158015610300573d6000803e3d6000fd5b505050506000811180156103145750606581105b6103555760405162461bcd60e51b815260206004820152600d60248201526c125b9d985b1a590818dbdd5b9d609a1b60448201526064015b60405180910390fd5b6068546040805163501ad8ff60e11b815290516000926001600160a01b03169163a035b1fe916004808301926020929190829003018186803b15801561039a57600080fd5b505afa1580156103ae573d6000803e3d6000fd5b505050506040513d601f19601f820116820180604052508101906103d291906113ef565b905060006103e0838361141e565b6001600160a01b03861660009081526065602052604090205490915081111561041b5760405162461bcd60e51b815260040161034c9061143d565b6001600160a01b0385166000908152606560205260408120805483929061044390849061146b565b90915550506068546040516321d9e3d160e01b815260048101859052600060248201526001600160a01b038681166044830152909116906321d9e3d190606401600060405180830381600087803b15801561049d57600080fd5b505af11580156104b1573d6000803e3d6000fd5b5050604080516001600160a01b03808a168252881660208201529081018690527f6876a213a761d9b4f8d7ba3609528ef85da671684271f75fdacb41be8db29f459250606001905060405180910390a15050505050565b306001600160a01b037f00000000000000000000000000000000000000000000000000000000000000001614156105515760405162461bcd60e51b815260040161034c90611482565b7f00000000000000000000000000000000000000000000000000000000000000006001600160a01b031661059a6000805160206115d0833981519152546001600160a01b031690565b6001600160a01b0316146105c05760405162461bcd60e51b815260040161034c906114ce565b6105c981610d9f565b604080516000808252602082019092526105e591839190610dfd565b50565b306001600160a01b037f00000000000000000000000000000000000000000000000000000000000000001614156106315760405162461bcd60e51b815260040161034c90611482565b7f00000000000000000000000000000000000000000000000000000000000000006001600160a01b031661067a6000805160206115d0833981519152546001600160a01b031690565b6001600160a01b0316146106a05760405162461bcd60e51b815260040161034c906114ce565b6106a982610d9f565b6106b582826001610dfd565b5050565b6000306001600160a01b037f000000000000000000000000000000000000000000000000000000000000000016146107595760405162461bcd60e51b815260206004820152603860248201527f555550535570677261646561626c653a206d757374206e6f742062652063616c60448201527f6c6564207468726f7567682064656c656761746563616c6c0000000000000000606482015260840161034c565b506000805160206115d083398151915290565b606760009054906101000a90046001600160a01b03166001600160a01b0316634d868f986040518163ffffffff1660e01b815260040160006040518083038186803b1580156107ba57600080fd5b505afa1580156107ce573d6000803e3d6000fd5b50506066546040516370a0823160e01b81523360048201528493506001600160a01b0390911691506370a082319060240160206040518083038186803b15801561081757600080fd5b505afa15801561082b573d6000803e3d6000fd5b505050506040513d601f19601f8201168201806040525081019061084f91906113ef565b101561086d5760405162461bcd60e51b815260040161034c9061143d565b6066546040516323b872dd60e01b8152336004820152306024820152604481018390526000916001600160a01b0316906323b872dd90606401602060405180830381600087803b1580156108c057600080fd5b505af11580156108d4573d6000803e3d6000fd5b505050506040513d601f19601f820116820180604052508101906108f8919061151a565b90508061093f5760405162461bcd60e51b81526020600482015260156024820152742ab739bab1b1b2b9b9b33ab6103a3930b739b332b960591b604482015260640161034c565b336000908152606560205260408120805484929061095e90849061153c565b909155505060408051338152602081018490527f2da466a7b24304f47e87fa2e1e5a81b9831ce54fec19055ce277ca2f39ba42c491015b60405180910390a15050565b600054610100900460ff16158080156109c15750600054600160ff909116105b806109db5750303b1580156109db575060005460ff166001145b610a3e5760405162461bcd60e51b815260206004820152602e60248201527f496e697469616c697a61626c653a20636f6e747261637420697320616c72656160448201526d191e481a5b9a5d1a585b1a5e995960921b606482015260840161034c565b6000805460ff191660011790558015610a61576000805461ff0019166101001790555b610a69610f7c565b606780546001600160a01b038681166001600160a01b0319928316179092556066805486841690831681179091556068805493861693909216831790915560405163095ea7b360e01b8152600481019290925260001960248301529063095ea7b390604401602060405180830381600087803b158015610ae857600080fd5b505af1158015610afc573d6000803e3d6000fd5b505050506040513d601f19601f82011682018060405250810190610b20919061151a565b508015610b67576000805461ff0019169055604051600181527f7f26b83ff96e1f2b6a682f133852f6798a09c465da95921460cefb38474024989060200160405180910390a15b50505050565b6067546040516335126dab60e21b81523360048201526001600160a01b039091169063d449b6ac9060240160006040518083038186803b158015610bb057600080fd5b505afa158015610bc4573d6000803e3d6000fd5b50505050606760009054906101000a90046001600160a01b03166001600160a01b0316634d868f986040518163ffffffff1660e01b815260040160006040518083038186803b158015610c1657600080fd5b505afa158015610c2a573d6000803e3d6000fd5b505050506001600160a01b038216600090815260656020526040902054811115610c665760405162461bcd60e51b815260040161034c9061143d565b6001600160a01b03821660009081526065602052604081208054839290610c8e90849061146b565b909155505060665460405163a9059cbb60e01b81526001600160a01b038481166004830152602482018490529091169063a9059cbb90604401602060405180830381600087803b158015610ce157600080fd5b505af1158015610cf5573d6000803e3d6000fd5b505050506040513d601f19601f82011682018060405250810190610d19919061151a565b506040516001600160a01b03831681527ff45a04d08a70caa7eb4b747571305559ad9fdf4a093afd41506b35c8a306fa9490602001610995565b6040805160028152618d9a6020820152600681830152618996606082015290517fc3bd4ed2d4734a6c41fbb6f699f0394f060b2c55daa261c5409976b797532fb09181900360800190a1565b606754604051632104fb0560e21b81523360048201526001600160a01b0390911690638413ec149060240160006040518083038186803b158015610de257600080fd5b505afa158015610df6573d6000803e3d6000fd5b5050505050565b7f4910fdfa16fed3260ed0e7147f7cc6da11a60208b5b9406d12a635614ffd91435460ff1615610e3557610e3083610fe9565b505050565b826001600160a01b03166352d1902d6040518163ffffffff1660e01b815260040160206040518083038186803b158015610e6e57600080fd5b505afa925050508015610e9e575060408051601f3d908101601f19168201909252610e9b918101906113ef565b60015b610f015760405162461bcd60e51b815260206004820152602e60248201527f45524331393637557067726164653a206e657720696d706c656d656e7461746960448201526d6f6e206973206e6f74205555505360901b606482015260840161034c565b6000805160206115d08339815191528114610f705760405162461bcd60e51b815260206004820152602960248201527f45524331393637557067726164653a20756e737570706f727465642070726f786044820152681a58589b195555525160ba1b606482015260840161034c565b50610e30838383611085565b600054610100900460ff16610fe75760405162461bcd60e51b815260206004820152602b60248201527f496e697469616c697a61626c653a20636f6e7472616374206973206e6f74206960448201526a6e697469616c697a696e6760a81b606482015260840161034c565b565b6001600160a01b0381163b6110565760405162461bcd60e51b815260206004820152602d60248201527f455243313936373a206e657720696d706c656d656e746174696f6e206973206e60448201526c1bdd08184818dbdb9d1c9858dd609a1b606482015260840161034c565b6000805160206115d083398151915280546001600160a01b0319166001600160a01b0392909216919091179055565b61108e836110aa565b60008251118061109b5750805b15610e3057610b6783836110ea565b6110b381610fe9565b6040516001600160a01b038216907fbc7cd75a20ee27fd9adebab32041f755214dbc6bffa90cc0225b39da2e5c2d3b90600090a250565b60606001600160a01b0383163b6111525760405162461bcd60e51b815260206004820152602660248201527f416464726573733a2064656c65676174652063616c6c20746f206e6f6e2d636f6044820152651b9d1c9858dd60d21b606482015260840161034c565b600080846001600160a01b03168460405161116d9190611580565b600060405180830381855af49150503d80600081146111a8576040519150601f19603f3d011682016040523d82523d6000602084013e6111ad565b606091505b50915091506111d582826040518060600160405280602781526020016115f0602791396111de565b95945050505050565b606083156111ed575081611217565b8251156111fd5782518084602001fd5b8160405162461bcd60e51b815260040161034c919061159c565b9392505050565b80356001600160a01b038116811461123557600080fd5b919050565b60008060006060848603121561124f57600080fd5b6112588461121e565b92506112666020850161121e565b9150604084013590509250925092565b60006020828403121561128857600080fd5b6112178261121e565b634e487b7160e01b600052604160045260246000fd5b600080604083850312156112ba57600080fd5b6112c38361121e565b9150602083013567ffffffffffffffff808211156112e057600080fd5b818501915085601f8301126112f457600080fd5b81358181111561130657611306611291565b604051601f8201601f19908116603f0116810190838211818310171561132e5761132e611291565b8160405282815288602084870101111561134757600080fd5b8260208601602083013760006020848301015280955050505050509250929050565b60006020828403121561137b57600080fd5b5035919050565b60008060006060848603121561139757600080fd5b6113a08461121e565b92506113ae6020850161121e565b91506113bc6040850161121e565b90509250925092565b600080604083850312156113d857600080fd5b6113e18361121e565b946020939093013593505050565b60006020828403121561140157600080fd5b5051919050565b634e487b7160e01b600052601160045260246000fd5b600081600019048311821515161561143857611438611408565b500290565b602080825260149082015273496e73756666696369656e742062616c616e636560601b604082015260600190565b60008282101561147d5761147d611408565b500390565b6020808252602c908201527f46756e6374696f6e206d7573742062652063616c6c6564207468726f7567682060408201526b19195b1959d85d1958d85b1b60a21b606082015260800190565b6020808252602c908201527f46756e6374696f6e206d7573742062652063616c6c6564207468726f7567682060408201526b6163746976652070726f787960a01b606082015260800190565b60006020828403121561152c57600080fd5b8151801515811461121757600080fd5b6000821982111561154f5761154f611408565b500190565b60005b8381101561156f578181015183820152602001611557565b83811115610b675750506000910152565b60008251611592818460208701611554565b9190910192915050565b60208152600082518060208401526115bb816040850160208701611554565b601f01601f1916919091016040019291505056fe360894a13ba1a3210667c828492db98dca3e2076cc3735a920a3ca505d382bbc416464726573733a206c6f772d6c6576656c2064656c65676174652063616c6c206661696c6564a264697066735822122062cb42b5e174e4a557c55b6959a4639300f8bdf4c4be4820d222948710866e8764736f6c63430008090033",
  "linkReferences": {},
  "deployedLinkReferences": {}
}