{
  "_format": "hh-sol-artifact-1",
  "contractName": "ForestFeed",
  "sourceName": "contracts/forestFeed/ForestFeed.sol",
  "abi": [
    {
      "inputs": [],
      "stateMutability": "nonpayable",
      "type": "constructor"
    },
    {
      "anonymous": false,
      "inputs": [
        {
          "indexed": false,
          "internalType": "address",
          "name": "previousAdmin",
          "type": "address"
        },
        {
          "indexed": false,
          "internalType": "address",
          "name": "newAdmin",
          "type": "address"
        }
      ],
      "name": "AdminChanged",
      "type": "event"
    },
    {
      "anonymous": false,
      "inputs": [
        {
          "indexed": true,
          "internalType": "address",
          "name": "beacon",
          "type": "address"
        }
      ],
      "name": "BeaconUpgraded",
      "type": "event"
    },
    {
      "anonymous": false,
      "inputs": [
        {
          "indexed": false,
          "internalType": "address",
          "name": "creator",
          "type": "address"
        },
        {
          "indexed": false,
          "internalType": "uint256",
          "name": "amount",
          "type": "uint256"
        }
      ],
      "name": "Deposited",
      "type": "event"
    },
    {
      "anonymous": false,
      "inputs": [
        {
          "indexed": false,
          "internalType": "uint8",
          "name": "version",
          "type": "uint8"
        }
      ],
      "name": "Initialized",
      "type": "event"
    },
    {
      "anonymous": false,
      "inputs": [
        {
          "indexed": false,
          "internalType": "address",
          "name": "creator",
          "type": "address"
        },
        {
          "indexed": false,
          "internalType": "address",
          "name": "to",
          "type": "address"
        },
        {
          "indexed": false,
          "internalType": "uint256",
          "name": "count",
          "type": "uint256"
        }
      ],
      "name": "Rewarded",
      "type": "event"
    },
    {
      "anonymous": false,
      "inputs": [
        {
          "indexed": true,
          "internalType": "address",
          "name": "implementation",
          "type": "address"
        }
      ],
      "name": "Upgraded",
      "type": "event"
    },
    {
      "anonymous": false,
      "inputs": [
        {
          "indexed": false,
          "internalType": "address",
          "name": "creator",
          "type": "address"
        }
      ],
      "name": "Withdrawn",
      "type": "event"
    },
    {
      "inputs": [],
      "name": "accessRestriction",
      "outputs": [
        {
          "internalType": "contract IAccessRestriction",
          "name": "",
          "type": "address"
        }
      ],
      "stateMutability": "view",
      "type": "function"
    },
    {
      "inputs": [],
      "name": "daiToken",
      "outputs": [
        {
          "internalType": "contract IERC20Upgradeable",
          "name": "",
          "type": "address"
        }
      ],
      "stateMutability": "view",
      "type": "function"
    },
    {
      "inputs": [
        {
          "internalType": "uint256",
          "name": "_amount",
          "type": "uint256"
        }
      ],
      "name": "deposit",
      "outputs": [],
      "stateMutability": "nonpayable",
      "type": "function"
    },
    {
      "inputs": [
        {
          "internalType": "address",
          "name": "_accessRestrictionAddress",
          "type": "address"
        },
        {
          "internalType": "address",
          "name": "_daiToken",
          "type": "address"
        },
        {
          "internalType": "address",
          "name": "_regularSale",
          "type": "address"
        }
      ],
      "name": "initialize",
      "outputs": [],
      "stateMutability": "nonpayable",
      "type": "function"
    },
    {
      "inputs": [],
      "name": "proxiableUUID",
      "outputs": [
        {
          "internalType": "bytes32",
          "name": "",
          "type": "bytes32"
        }
      ],
      "stateMutability": "view",
      "type": "function"
    },
    {
      "inputs": [
        {
          "internalType": "address",
          "name": "_creator",
          "type": "address"
        },
        {
          "internalType": "address",
          "name": "_to",
          "type": "address"
        },
        {
          "internalType": "uint256",
          "name": "_count",
          "type": "uint256"
        }
      ],
      "name": "reward",
      "outputs": [],
      "stateMutability": "nonpayable",
      "type": "function"
    },
    {
      "inputs": [
        {
          "internalType": "address",
          "name": "",
          "type": "address"
        }
      ],
      "name": "totalBalance",
      "outputs": [
        {
          "internalType": "uint256",
          "name": "",
          "type": "uint256"
        }
      ],
      "stateMutability": "view",
      "type": "function"
    },
    {
      "inputs": [],
      "name": "treejerRegularSale",
      "outputs": [
        {
          "internalType": "contract IRegularSale",
          "name": "",
          "type": "address"
        }
      ],
      "stateMutability": "view",
      "type": "function"
    },
    {
      "inputs": [
        {
          "internalType": "address",
          "name": "newImplementation",
          "type": "address"
        }
      ],
      "name": "upgradeTo",
      "outputs": [],
      "stateMutability": "nonpayable",
      "type": "function"
    },
    {
      "inputs": [
        {
          "internalType": "address",
          "name": "newImplementation",
          "type": "address"
        },
        {
          "internalType": "bytes",
          "name": "data",
          "type": "bytes"
        }
      ],
      "name": "upgradeToAndCall",
      "outputs": [],
      "stateMutability": "payable",
      "type": "function"
    },
    {
      "inputs": [
        {
          "internalType": "address",
          "name": "_creator",
          "type": "address"
        },
        {
          "internalType": "uint256",
          "name": "_amount",
          "type": "uint256"
        }
      ],
      "name": "withdraw",
      "outputs": [],
      "stateMutability": "nonpayable",
      "type": "function"
    }
  ],
  "bytecode": "0x60a06040523060805234801561001457600080fd5b5061001d610022565b6100e1565b600054610100900460ff161561008e5760405162461bcd60e51b815260206004820152602760248201527f496e697469616c697a61626c653a20636f6e747261637420697320696e697469604482015266616c697a696e6760c81b606482015260840160405180910390fd5b60005460ff908116146100df576000805460ff191660ff9081179091556040519081527f7f26b83ff96e1f2b6a682f133852f6798a09c465da95921460cefb38474024989060200160405180910390a15b565b6080516115f8610118600039600081816104f301528181610533015281816105d30152818161061301526106a601526115f86000f3fe60806040526004361061009c5760003560e01c8063b154927911610064578063b15492791461014b578063b6b55f2514610183578063be22f546146101a3578063c0c53b8b146101c3578063d6762c4a146101e3578063f3fef3a31461020357600080fd5b8063135488d6146100a15780633659cfe6146100c35780634f1ef286146100e357806352d1902d146100f65780636eacd3981461011e575b600080fd5b3480156100ad57600080fd5b506100c16100bc3660046111e6565b610223565b005b3480156100cf57600080fd5b506100c16100de366004611222565b6104e8565b6100c16100f1366004611253565b6105c8565b34801561010257600080fd5b5061010b610699565b6040519081526020015b60405180910390f35b34801561012a57600080fd5b5061010b610139366004611222565b60656020526000908152604090205481565b34801561015757600080fd5b5060685461016b906001600160a01b031681565b6040516001600160a01b039091168152602001610115565b34801561018f57600080fd5b506100c161019e366004611315565b61074c565b3480156101af57600080fd5b5060665461016b906001600160a01b031681565b3480156101cf57600080fd5b506100c16101de36600461132e565b610981565b3480156101ef57600080fd5b5060675461016b906001600160a01b031681565b34801561020f57600080fd5b506100c161021e366004611371565b610b4d565b6067546040516335126dab60e21b81523360048201526001600160a01b039091169063d449b6ac9060240160006040518083038186803b15801561026657600080fd5b505afa15801561027a573d6000803e3d6000fd5b50505050606760009054906101000a90046001600160a01b03166001600160a01b0316634d868f986040518163ffffffff1660e01b815260040160006040518083038186803b1580156102cc57600080fd5b505afa1580156102e0573d6000803e3d6000fd5b505050506000811180156102f45750606581105b6103355760405162461bcd60e51b815260206004820152600d60248201526c125b9d985b1a590818dbdd5b9d609a1b60448201526064015b60405180910390fd5b6068546040805163501ad8ff60e11b815290516000926001600160a01b03169163a035b1fe916004808301926020929190829003018186803b15801561037a57600080fd5b505afa15801561038e573d6000803e3d6000fd5b505050506040513d601f19601f820116820180604052508101906103b2919061139b565b905060006103c083836113ca565b6001600160a01b0386166000908152606560205260409020549091508111156103fb5760405162461bcd60e51b815260040161032c906113e9565b6001600160a01b03851660009081526065602052604081208054839290610423908490611417565b90915550506068546040516321d9e3d160e01b815260048101859052600060248201526001600160a01b038681166044830152909116906321d9e3d190606401600060405180830381600087803b15801561047d57600080fd5b505af1158015610491573d6000803e3d6000fd5b5050604080516001600160a01b03808a168252881660208201529081018690527f6876a213a761d9b4f8d7ba3609528ef85da671684271f75fdacb41be8db29f459250606001905060405180910390a15050505050565b306001600160a01b037f00000000000000000000000000000000000000000000000000000000000000001614156105315760405162461bcd60e51b815260040161032c9061142e565b7f00000000000000000000000000000000000000000000000000000000000000006001600160a01b031661057a60008051602061157c833981519152546001600160a01b031690565b6001600160a01b0316146105a05760405162461bcd60e51b815260040161032c9061147a565b6105a981610d33565b604080516000808252602082019092526105c591839190610d91565b50565b306001600160a01b037f00000000000000000000000000000000000000000000000000000000000000001614156106115760405162461bcd60e51b815260040161032c9061142e565b7f00000000000000000000000000000000000000000000000000000000000000006001600160a01b031661065a60008051602061157c833981519152546001600160a01b031690565b6001600160a01b0316146106805760405162461bcd60e51b815260040161032c9061147a565b61068982610d33565b61069582826001610d91565b5050565b6000306001600160a01b037f000000000000000000000000000000000000000000000000000000000000000016146107395760405162461bcd60e51b815260206004820152603860248201527f555550535570677261646561626c653a206d757374206e6f742062652063616c60448201527f6c6564207468726f7567682064656c656761746563616c6c0000000000000000606482015260840161032c565b5060008051602061157c83398151915290565b606760009054906101000a90046001600160a01b03166001600160a01b0316634d868f986040518163ffffffff1660e01b815260040160006040518083038186803b15801561079a57600080fd5b505afa1580156107ae573d6000803e3d6000fd5b50506066546040516370a0823160e01b81523360048201528493506001600160a01b0390911691506370a082319060240160206040518083038186803b1580156107f757600080fd5b505afa15801561080b573d6000803e3d6000fd5b505050506040513d601f19601f8201168201806040525081019061082f919061139b565b101561084d5760405162461bcd60e51b815260040161032c906113e9565b6066546040516323b872dd60e01b8152336004820152306024820152604481018390526000916001600160a01b0316906323b872dd90606401602060405180830381600087803b1580156108a057600080fd5b505af11580156108b4573d6000803e3d6000fd5b505050506040513d601f19601f820116820180604052508101906108d891906114c6565b90508061091f5760405162461bcd60e51b81526020600482015260156024820152742ab739bab1b1b2b9b9b33ab6103a3930b739b332b960591b604482015260640161032c565b336000908152606560205260408120805484929061093e9084906114e8565b909155505060408051338152602081018490527f2da466a7b24304f47e87fa2e1e5a81b9831ce54fec19055ce277ca2f39ba42c491015b60405180910390a15050565b600054610100900460ff16158080156109a15750600054600160ff909116105b806109bb5750303b1580156109bb575060005460ff166001145b610a1e5760405162461bcd60e51b815260206004820152602e60248201527f496e697469616c697a61626c653a20636f6e747261637420697320616c72656160448201526d191e481a5b9a5d1a585b1a5e995960921b606482015260840161032c565b6000805460ff191660011790558015610a41576000805461ff0019166101001790555b610a49610f10565b606780546001600160a01b038681166001600160a01b0319928316179092556066805486841690831681179091556068805493861693909216831790915560405163095ea7b360e01b8152600481019290925260001960248301529063095ea7b390604401602060405180830381600087803b158015610ac857600080fd5b505af1158015610adc573d6000803e3d6000fd5b505050506040513d601f19601f82011682018060405250810190610b0091906114c6565b508015610b47576000805461ff0019169055604051600181527f7f26b83ff96e1f2b6a682f133852f6798a09c465da95921460cefb38474024989060200160405180910390a15b50505050565b6067546040516335126dab60e21b81523360048201526001600160a01b039091169063d449b6ac9060240160006040518083038186803b158015610b9057600080fd5b505afa158015610ba4573d6000803e3d6000fd5b50505050606760009054906101000a90046001600160a01b03166001600160a01b0316634d868f986040518163ffffffff1660e01b815260040160006040518083038186803b158015610bf657600080fd5b505afa158015610c0a573d6000803e3d6000fd5b505050506001600160a01b038216600090815260656020526040902054811115610c465760405162461bcd60e51b815260040161032c906113e9565b6001600160a01b03821660009081526065602052604081208054839290610c6e908490611417565b909155505060665460405163a9059cbb60e01b81526001600160a01b038481166004830152602482018490529091169063a9059cbb90604401602060405180830381600087803b158015610cc157600080fd5b505af1158015610cd5573d6000803e3d6000fd5b505050506040513d601f19601f82011682018060405250810190610cf991906114c6565b506040516001600160a01b03831681527ff45a04d08a70caa7eb4b747571305559ad9fdf4a093afd41506b35c8a306fa9490602001610975565b606754604051632104fb0560e21b81523360048201526001600160a01b0390911690638413ec149060240160006040518083038186803b158015610d7657600080fd5b505afa158015610d8a573d6000803e3d6000fd5b5050505050565b7f4910fdfa16fed3260ed0e7147f7cc6da11a60208b5b9406d12a635614ffd91435460ff1615610dc957610dc483610f7d565b505050565b826001600160a01b03166352d1902d6040518163ffffffff1660e01b815260040160206040518083038186803b158015610e0257600080fd5b505afa925050508015610e32575060408051601f3d908101601f19168201909252610e2f9181019061139b565b60015b610e955760405162461bcd60e51b815260206004820152602e60248201527f45524331393637557067726164653a206e657720696d706c656d656e7461746960448201526d6f6e206973206e6f74205555505360901b606482015260840161032c565b60008051602061157c8339815191528114610f045760405162461bcd60e51b815260206004820152602960248201527f45524331393637557067726164653a20756e737570706f727465642070726f786044820152681a58589b195555525160ba1b606482015260840161032c565b50610dc4838383611019565b600054610100900460ff16610f7b5760405162461bcd60e51b815260206004820152602b60248201527f496e697469616c697a61626c653a20636f6e7472616374206973206e6f74206960448201526a6e697469616c697a696e6760a81b606482015260840161032c565b565b6001600160a01b0381163b610fea5760405162461bcd60e51b815260206004820152602d60248201527f455243313936373a206e657720696d706c656d656e746174696f6e206973206e60448201526c1bdd08184818dbdb9d1c9858dd609a1b606482015260840161032c565b60008051602061157c83398151915280546001600160a01b0319166001600160a01b0392909216919091179055565b6110228361103e565b60008251118061102f5750805b15610dc457610b47838361107e565b61104781610f7d565b6040516001600160a01b038216907fbc7cd75a20ee27fd9adebab32041f755214dbc6bffa90cc0225b39da2e5c2d3b90600090a250565b60606110a3838360405180606001604052806027815260200161159c602791396110aa565b9392505050565b6060600080856001600160a01b0316856040516110c7919061152c565b600060405180830381855af49150503d8060008114611102576040519150601f19603f3d011682016040523d82523d6000602084013e611107565b606091505b509150915061111886838387611122565b9695505050505050565b6060831561118e578251611187576001600160a01b0385163b6111875760405162461bcd60e51b815260206004820152601d60248201527f416464726573733a2063616c6c20746f206e6f6e2d636f6e7472616374000000604482015260640161032c565b5081611198565b61119883836111a0565b949350505050565b8151156111b05781518083602001fd5b8060405162461bcd60e51b815260040161032c9190611548565b80356001600160a01b03811681146111e157600080fd5b919050565b6000806000606084860312156111fb57600080fd5b611204846111ca565b9250611212602085016111ca565b9150604084013590509250925092565b60006020828403121561123457600080fd5b6110a3826111ca565b634e487b7160e01b600052604160045260246000fd5b6000806040838503121561126657600080fd5b61126f836111ca565b9150602083013567ffffffffffffffff8082111561128c57600080fd5b818501915085601f8301126112a057600080fd5b8135818111156112b2576112b261123d565b604051601f8201601f19908116603f011681019083821181831017156112da576112da61123d565b816040528281528860208487010111156112f357600080fd5b8260208601602083013760006020848301015280955050505050509250929050565b60006020828403121561132757600080fd5b5035919050565b60008060006060848603121561134357600080fd5b61134c846111ca565b925061135a602085016111ca565b9150611368604085016111ca565b90509250925092565b6000806040838503121561138457600080fd5b61138d836111ca565b946020939093013593505050565b6000602082840312156113ad57600080fd5b5051919050565b634e487b7160e01b600052601160045260246000fd5b60008160001904831182151516156113e4576113e46113b4565b500290565b602080825260149082015273496e73756666696369656e742062616c616e636560601b604082015260600190565b600082821015611429576114296113b4565b500390565b6020808252602c908201527f46756e6374696f6e206d7573742062652063616c6c6564207468726f7567682060408201526b19195b1959d85d1958d85b1b60a21b606082015260800190565b6020808252602c908201527f46756e6374696f6e206d7573742062652063616c6c6564207468726f7567682060408201526b6163746976652070726f787960a01b606082015260800190565b6000602082840312156114d857600080fd5b815180151581146110a357600080fd5b600082198211156114fb576114fb6113b4565b500190565b60005b8381101561151b578181015183820152602001611503565b83811115610b475750506000910152565b6000825161153e818460208701611500565b9190910192915050565b6020815260008251806020840152611567816040850160208701611500565b601f01601f1916919091016040019291505056fe360894a13ba1a3210667c828492db98dca3e2076cc3735a920a3ca505d382bbc416464726573733a206c6f772d6c6576656c2064656c65676174652063616c6c206661696c6564a26469706673582212206d984475cfbe3e091db47680a88d4b9992d72f640b861c66ad467476a2ce3d8864736f6c63430008090033",
  "linkReferences": {},
  "deployedLinkReferences": {}
}